S01100004D6963726F436F64652E737265639E
S11300000C9478000C9495000C9495000C94950035
S11300100C9495000C9495000C9495000C94950008
S11300200C9495000C9495000C9495000C949500F8
S11300300C9495000C9495000C9495000C949500E8
S11300400C9495000C9495000C9495000C949500D8
S11300500C949500C9030904DD0309040504BF03D6
S1130060CE03D303D803E203E703EC03F603FB0355
S11300700004090409040904C40309040904090463
S113008009040904BA030904090409040904090454
S113009009040904090409040904090409040904F4
S11300A009040904090409040904090409040904E4
S11300B009040904090409040904090409040904D4
S11300C009040904090409040904090409040904C4
S11300D009040904090409040904090409040904B4
S11300E00904090409040904090409040904F103BD
S11300F011241FBECFE5D8E0DEBFCDBF11E0A0E6DE
S1130100B0E0EAE6F0E102C005900D92AE33B1072B
S1130110D9F721E0AEE3B1E001C01D92A937B207DF
S1130120E1F70E94C8020C9433080C94000098B3C1
S11301309F70282F207F922B98BBC098C19A35E0DE
S11301403A95F1F70000C198EFE1F3E03197F1F748
S113015000C0000028B32F70F0E18F9FC00111246C
S1130160822B88BBC19A35E03A95F1F70000C1981B
S11301708FE39FE10197F1F700C00000089598B361
S11301809F70282F207F922B98BBC09AC19A35E08C
S11301903A95F1F70000C198EFE1F3E03197F1F7F8
S11301A000C0000028B32F70F0E18F9FC00111241C
S11301B0822B88BBC19A35E03A95F1F70000C198CB
S11301C08FE39FE10197F1F700C0000008958FEFDE
S11301D087BB2FEF89EF90E0215080409040E1F7FA
S11301E000C0000082E00E94970088E20E9497000D
S11301F08CE00E94970086E00E94970081E00E94B4
S113020097008FE39FE10197F1F700C00000089584
S1130210CF93DF93EC018881882331F021960E94EB
S1130220BF0089918111FBCFDF91CF91089581E0C7
S11302300E9497008FE39FE10197F1F700C000004F
S113024080E80E94970008958FE084BB80EF85BB0F
S1130250A898A99AAA9AAB9A87EC90E00197F1F72B
S113026000C000009C9903C09C9BFECF6AC09D996E
S113027003C09D9BFECF67C09E9903C09E9BFECF8B
S113028064C09F9903C09F9BFECF61C0A89AA998A0
S1130290AA9AAB9A87EC90E00197F1F700C00000AE
S11302A09C9903C09C9BFECF54C09D9903C09D9B09
S11302B0FECF51C09E9903C09E9BFECF4EC09F9916
S11302C003C09F9BFECF4BC0A89AA99AAA98AB9A49
S11302D087EC90E00197F1F700C000009C9903C0FF
S11302E09C9BFECF3EC09D9903C09D9BFECF3BC00F
S11302F09E9903C09E9BFECF38C09F9903C09F9BCD
S1130300FECF35C0A89AA99AAA9AAB9887EC90E038
S11303100197F1F700C000009C9903C09C9BFECF9D
S113032028C09D9903C09D9BFECF25C09E9903C004
S11303309E9BFECF22C09F9922C09F9BFECF8BE243
S1130340089587E3089588E3089589E308958FE283
S1130350089584E3089585E3089586E3089588E77E
S1130360089581E3089582E3089583E308958DE277
S1130370089583E4089580E308958DE3089580E06B
S11303800895E0E6F0E028E630E09FEF1BBA92BB68
S113039081918BBBAFE3BFE11197F1F700C000007F
S11303A0E217F30799F70895A0E6B0E080E090E043
S11303B01BBAE0914301F0E0EE0FFF1FEE0FFF1FA9
S11303C0E85BFE4FE80FF91F208122BB2D912BBB68
S11303D0EFE3FFE13197F1F700C0000001968430AC
S11303E0910531F70895E0E6F1E0A0E6B0E024E6F7
S11303F031E01BBA819182BB8D918BBB8FE39FE16E
S11304000197F1F700C00000E217F30791F7089590
S11304108F929F92AF92BF92CF92DF92EF92FF9210
S11304200F931F93CF93DF9388E190E00E94E70737
S11304308F3F81F40F2EF5E68F2EF0E09F2EF02DE6
S11304400F2EF8E4AF2EF1E0BF2EF02D740100E082
S113045010E042C08093470189E190E00E94E707E1
S1130460809346018AE190E00E94E70790E0909330
S1130470450180934401C0E0D0E00EC0CE010E944B
S1130480E707F80181938F012196EC16FD06B1F779
S1130490E701C831D10531F18E01085B1E4F7E01A1
S11304A0F4E0EF0EF11CEACFF40181914F0189933E
S11304B0F7016081C8010E94EF078C149D04A1F725
S11304C00F5F1F4FF4E0AF0EB11C8FEFE81AF80A6C
S11304D046010630110531F06401E4E0CE0ED11C72
S11304E0E501E2CFDF91CF911F910F91FF90EF9043
S11304F0DF90CF90BF90AF909F908F900895EF9230
S1130500FF920F931F93CF93DF93C5E6D0E07E0154
S113051000E010E0C8010E94E707F70181937F0122
S11305200F5F1F4F08311105A9F72DE030E0A5E654
S1130530B0E057969C915797ECE7F0E08291818365
S1130540EC17FD07D9F79C932150310991F700E08E
S113055010E06991C8010E94EF070F5F1F4F083137
S11305601105B9F7DF91CF911F910F91FF90EF9093
S11305700895CF93DF93C8ECD0E00E94F30185E3A4
S11305808A95F1F700002197C1F7DF91CF91089583
S1130590CF93DF9300D01F92CDB7DEB70E94E70060
S11305A00E9408020E947F0285E80E9497008DE75E
S11305B090E00E94080183EC0E94970088E890E094
S11305C00E94080185E1E4E6F1E0DF011D928A95CD
S11305D0E9F78FEF81BB8ABBE8E4F1E040E651E044
S11305E00BC080818095806F81932E173F07C9F7D8
S11305F0F9012417350721F09F012C5F3F4FF1CFFC
S1130600BFEFEBE7F2E9B150E040F040E1F700C0A2
S113061000000BE111E00E94170187E990E00E94BD
S1130620080180EC0E94970083EA90E00E94080190
S113063080913E019FEC980F923040F00E9424017B
S113064080933E019FEC980F9230C0F7813309F0FC
S1130650D0C1E0E6F1E08FEF8083818382838383DE
S11306600E94170184E80E94970082EB90E00E94A8
S1130670080180EC0E9497008FEB90E00E94080133
S113068022EC31E03B832A830E94D4018A819B813E
S113069001979B838A83892BB9F70E94C1010E9429
S11306A017010F2EF4EDAF2EF0E0BF2EF02D04E66F
S11306B011E00F2EFFEDCF2EF0E0DF2EF02D202ED7
S11306C01983772473946894662461F868943324B6
S11306D032F86894442443F80F2EF3E05F2EF02D93
S11306E00F2EF4E68F2EF1E09F2EF02D0F2EF0E664
S11306F0EF2EF1E0FF2EF02D0E94F30180916400B3
S11307001F928F93BF92AF921F930F930E94340551
S113071080E80E949700822D99810E9408018091AF
S113072045018F93809144018F93DF92CF921F9361
S11307300F930E94340580EC0E949700822D9981CA
S11307400E9408010E94F3010E94240180933E014B
S11307500FB6F894DEBF0FBECDBF882369F290E0D8
S1130760FC01BB97EE34F10508F053C0E65DFF4F82
S11307700C942E0550924201409241014AC050927D
S113078042013092410145C05092420160924101C0
S113079040C050924201709241013BC060924201BC
S11307A04092410136C0609242013092410131C011
S11307B060924201609241012CC0609242017092A9
S11307C0410127C0709242014092410122C07092BF
S11307D04201309241011DC0709242016092410178
S11307E018C0709242017092410113C010924201EC
S11307F0409241010EC0109242013092410109C061
S1130800109242016092410104C010924201709220
S113081041018091420190E020914101E091430126
S1130820F0E0EE0FFF1FEE0FFF1FE85BFE4FE80F37
S1130830F91F3081322330934001FC01E05AFE4F0E
S11308408081282320933F010E94F301809140017D
S1130850811106C080913F01882309F44DCF42C025
S113086080913F018823F1F1BB9AC39A0E94B90297
S1130870C39880914401909145010197909345015B
S113088080934401809164008150809364008F3F81
S113089009F042C0809146018F5F809346010E9417
S11308A0170185E80E9497008AEE90E00E940801F3
S11308B086EC0E94970085EF90E00E940801609109
S11308C0470188E190E00E94EF076091460189E1C9
S11308D090E00E94EF07609144018AE190E00E9459
S11308E0EF07BBC08091440190914501039690931A
S11308F0450180934401E0914201F0E0E05AFE4F4B
S113090080914101982F9095808189238083BA9AA0
S1130910C29A0E94B902C2980E94F30180914301D5
S1130920A0E6B1E0E82FF0E0EE0FFF1FEE0FFF1F8F
S1130930E85BFE4F372D40E02D9191912913342F20
S11309408A169B06C9F7332309F450C09FEFF701B9
S113095090839183928393838F5F80934301863046
S113096041F5809147018F5F809347010E941701F1
S113097086E80E9497008EEF90E00E94080187ECC1
S11309800E94970087E091E00E940801609147016E
S113099088E190E00E94EF076091460189E190E0D0
S11309A00E94EF07609144018AE190E00E94EF0702
S11309B0FFCF0E94170184E80E9497008EE091E027
S11309C00E94080180EC0E9497008FEB90E00E9447
S11309D0080122EC31E03B832A830E94D4018A81FE
S11309E09B8101979B838A83892BB9F70E94170106
S11309F083CE823309F00FCE809146011F928F93EC
S1130A00809147011F928F931F930F93A4E6B1E047
S1130A10BF93AF930E9434050E94170180E80E949F
S1130A20970084E691E00E94080180EC0E94970000
S1130A308BE291E00E9408010FB6F894DEBF0FBE6E
S1130A40CDBF80913E01833409F4E5CD0E94240199
S1130A5080933E018334D1F7DECDFFCFEE0FFF1F2D
S1130A600590F491E02D0994AEE0B0E0EAE3F5E0FE
S1130A700C940A080D891E8986E08C831A830983E5
S1130A808FEF9FE79E838D83AE01475E5F4F6F8933
S1130A90788DCE0101960E945605EF81F885E00F0E
S1130AA0F11F10822E96E4E00C942608ABE0B0E02F
S1130AB0ECE5F5E00C94FC076C017B018A01FC0178
S1130AC017821682838181FFCCC1CE0101963C013D
S1130AD0F6019381F70193FD859193FF81917F0145
S1130AE0882309F4BAC1853239F493FD859193FFC3
S1130AF081917F01853229F4B60190E00E944D076F
S1130B00E7CF912C212C312CFFE1F315D8F08B3257
S1130B1079F038F4803279F08332A1F4232D206106
S1130B201DC08D3261F0803369F4232D216016C01D
S1130B30832D8260382EE32DE4603E2E2AC0F32DEF
S1130B40F8601DC037FC2DC020ED280F2A3040F07E
S1130B508E32B9F436FC81C1232D2064322E19C0A3
S1130B6036FE06C08AE0989E200D1124922E11C0F4
S1130B70EAE02E9E200D1124222EF32DF0623F2E4A
S1130B8008C08C3621F4832D8068382E02C0883644
S1130B9041F4F70193FD859193FF81917F018111C8
S1130BA0B3CF982F9F7D9554933028F40C5F1F4F3B
S1130BB09FE399830DC0833631F0833771F0833519
S1130BC009F059C021C0F801808189830E5F1F4F4D
S1130BD088248394912C530113C02801F2E04F0E12
S1130BE0511CF801A080B18036FE03C0692D70E06D
S1130BF002C06FEF7FEFC5010E9442074C018201E2
S1130C00F32DFF773F2E16C0280122E0420E511C1F
S1130C10F801A080B18036FE03C0692D70E002C0E7
S1130C206FEF7FEFC5010E9437074C01F32DF06889
S1130C303F2E820133FC1BC0822D90E0881699065A
S1130C40B0F4B60180E290E00E944D072A94F4CFFC
S1130C50F50137FC859137FE81915F01B60190E083
S1130C600E944D0721102A9421E0821A91088114D0
S1130C70910471F7E8C0843611F0893641F5F80122
S1130C8037FE07C060817181828193810C5F1F4FA1
S1130C9008C060817181072E000C880B990B0E5FD0
S1130CA01F4FF32DFF763F2E97FF09C09095809537
S1130CB0709561957F4F8F4F9F4FF0683F2E2AE0CC
S1130CC030E0A3010E948907882E861845C0853725
S1130CD031F4232D2F7EB22E2AE030E025C0932D4F
S1130CE0997FB92E8F36C1F018F4883579F0B5C0E4
S1130CF0803719F0883721F0B0C0E92FE061BE2EAB
S1130D00B4FE0DC0FB2DF460BF2E09C034FE0AC032
S1130D10292F2660B22E06C028E030E005C020E16D
S1130D2030E002C020E132E0F801B7FE07C0608184
S1130D307181828193810C5F1F4F06C06081718134
S1130D4080E090E00E5F1F4FA3010E948907882E68
S1130D508618FB2DFF773F2E36FE0DC0232D2E7FE8
S1130D60A22E891458F434FE0BC032FC09C0832D22
S1130D708E7EA82E05C0B82CA32C03C0B82C01C0AD
S1130D80B92CA4FE0FC0FE01E80DF11D8081803353
S1130D9021F49A2D997EA92E09C0A2FE06C0B3940F
S1130DA0B39404C08A2D867809F0B394A3FC11C0CF
S1130DB0A0FE06C0B21488F4280C922C9B180EC016
S1130DC0B21460F4B60180E290E00E944D07B3943F
S1130DD0F7CFB21418F42B1802C0982C212CA4FEBF
S1130DE010C0B60180E390E00E944D07A2FE17C038
S1130DF0A1FC03C088E790E002C088E590E0B6015A
S1130E000CC08A2D867859F0A1FE02C08BE201C085
S1130E1080E2A7FC8DE2B60190E00E944D078914A0
S1130E2038F4B60180E390E00E944D079A94F7CF1E
S1130E308A94F301E80DF11D8081B60190E00E94CF
S1130E404D078110F5CF222009F442CEB60180E28D
S1130E5090E00E944D072A94F6CFF601868197818F
S1130E6002C08FEF9FEF2B96E2E10C941808FC016F
S1130E700590615070400110D8F7809590958E0FC1
S1130E809F1F0895FC016150704001900110D8F734
S1130E90809590958E0F9F1F08950F931F93CF9366
S1130EA0DF93FB01238121FD03C08FEF9FEF2CC053
S1130EB022FF16C04681578124813581421753078A
S1130EC044F4A081B1819D012F5F3F4F3183208382
S1130ED08C93268137812F5F3F4F3783268314C03D
S1130EE08B01EC01FB010084F185E02D0995892B30
S1130EF0E1F6D80116968D919C9117970196179655
S1130F009C938E931697CE01DF91CF911F910F91F1
S1130F100895FA01AA27283051F1203181F1E8948B
S1130F206F936E7F6E5F7F4F8F4F9F4FAF4FB1E0D8
S1130F303ED0B4E03CD0670F781F891F9A1FA11DD3
S1130F40680F791F8A1F911DA11D6A0F711D811DD4
S1130F50911DA11D20D009F468943F912AE0269F99
S1130F6011243019305D3193DEF6CF010895462FF8
S1130F704770405D4193B3E00FD0C9F7F6CF462FD9
S1130F804F70405D4A3318F0495D31FD4052419342
S1130F9002D0A9F7EACFB4E0A695979587957795FF
S1130FA06795BA95C9F700976105710508959B0186
S1130FB0AC010A2E06945795479537952795BA950F
S1130FC0C9F7620F731F841F951FA01D0895E1992F
S1130FD0FECF9FBB8EBBE09A99278DB30895262F31
S1130FE0E199FECF9FBB8EBB2DBB0FB6F894E29A5E
S1130FF0E19A0FBE019608952F923F924F925F920D
S11310006F927F928F929F92AF92BF92CF92DF9214
S1131010EF92FF920F931F93CF93DF93CDB7DEB779
S1131020CA1BDB0B0FB6F894DEBF0FBECDBF09940D
S11310302A88398848885F846E847D848C849B8464
S1131040AA84B984C884DF80EE80FD800C811B8172
S1131050AA81B981CE0FD11D0FB6F894DEBF0FBEA1
S10D1060CDBFED010895F894FFCF11
S113106A010204080601030C03060F08060700051B
S113107A02040E0D0B08020A090B04010057656CE1
S113108A636F6D6520746F005061747465726E20AD
S113109A47756573732100312D3E4E65772067616C
S11310AA6D6500322D3E496E666F726D6174696FAB
S11310BA6E0054686973207061747465726E006896
S11310CA6964652061667465722035207365636F8F
S11310DA6E6473004C69766573203A202564005067
S11310EA6F696E74203A2025640047616D6520207B
S11310FA6F76657200427965202042796500596FDE
S113110A752020576F6E00486120204861006E6583
S113111A77207061747465726E210057696E3A257E
S113112A642C204C6F73733A256400507265737390
S111113A204F4E2F4320746F206261636B00C0
S9030000FC
